{
  "contractName": "FutureBlock",
  "abi": [
    {
      "constant": false,
      "inputs": [
        {
          "name": "_offerNr",
          "type": "uint256"
        },
        {
          "name": "_bidNr",
          "type": "uint256"
        },
        {
          "name": "_bidAmount",
          "type": "int256"
        },
        {
          "name": "_bidPrice",
          "type": "uint256"
        }
      ],
      "name": "updateBid",
      "outputs": [
        {
          "name": "success",
          "type": "bool"
        }
      ],
      "payable": false,
      "type": "function"
    },
    {
      "constant": false,
      "inputs": [
        {
          "name": "_offerNr",
          "type": "uint256"
        },
        {
          "name": "contractAddress",
          "type": "address"
        }
      ],
      "name": "transferAndClose",
      "outputs": [
        {
          "name": "success",
          "type": "bool"
        }
      ],
      "payable": false,
      "type": "function"
    },
    {
      "constant": false,
      "inputs": [
        {
          "name": "_amount",
          "type": "int256"
        },
        {
          "name": "_startInterval",
          "type": "uint256"
        },
        {
          "name": "_endInterval",
          "type": "uint256"
        }
      ],
      "name": "newOffer",
      "outputs": [],
      "payable": false,
      "type": "function"
    },
    {
      "constant": true,
      "inputs": [
        {
          "name": "_bidNr",
          "type": "uint256"
        }
      ],
      "name": "getBid",
      "outputs": [
        {
          "name": "",
          "type": "address"
        },
        {
          "name": "",
          "type": "int256"
        },
        {
          "name": "",
          "type": "uint256"
        }
      ],
      "payable": false,
      "type": "function"
    },
    {
      "constant": true,
      "inputs": [
        {
          "name": "",
          "type": "uint256"
        }
      ],
      "name": "bids",
      "outputs": [
        {
          "name": "bidder",
          "type": "address"
        },
        {
          "name": "offerNr",
          "type": "uint256"
        },
        {
          "name": "bidNr",
          "type": "uint256"
        },
        {
          "name": "bidAmount",
          "type": "int256"
        },
        {
          "name": "bidPrice",
          "type": "uint256"
        }
      ],
      "payable": false,
      "type": "function"
    },
    {
      "constant": true,
      "inputs": [
        {
          "name": "_offerNr",
          "type": "uint256"
        }
      ],
      "name": "getOffer",
      "outputs": [
        {
          "name": "",
          "type": "address"
        },
        {
          "name": "",
          "type": "int256"
        },
        {
          "name": "",
          "type": "uint256"
        },
        {
          "name": "",
          "type": "uint256"
        },
        {
          "name": "",
          "type": "bool"
        }
      ],
      "payable": false,
      "type": "function"
    },
    {
      "constant": false,
      "inputs": [
        {
          "name": "_offerNr",
          "type": "uint256"
        },
        {
          "name": "_bidNr",
          "type": "uint256"
        }
      ],
      "name": "setAcceptedBids",
      "outputs": [],
      "payable": false,
      "type": "function"
    },
    {
      "constant": true,
      "inputs": [
        {
          "name": "",
          "type": "uint256"
        }
      ],
      "name": "offers",
      "outputs": [
        {
          "name": "owner",
          "type": "address"
        },
        {
          "name": "offerAmount",
          "type": "int256"
        },
        {
          "name": "offerNr",
          "type": "uint256"
        },
        {
          "name": "numAcceptedBids",
          "type": "uint256"
        },
        {
          "name": "acceptedPrice",
          "type": "uint256"
        },
        {
          "name": "fulfilled",
          "type": "bool"
        }
      ],
      "payable": false,
      "type": "function"
    },
    {
      "constant": false,
      "inputs": [
        {
          "name": "_offerNr",
          "type": "uint256"
        },
        {
          "name": "_bidAmount",
          "type": "int256"
        },
        {
          "name": "_bidPrice",
          "type": "uint256"
        }
      ],
      "name": "setBid",
      "outputs": [
        {
          "name": "success",
          "type": "bool"
        }
      ],
      "payable": false,
      "type": "function"
    },
    {
      "constant": false,
      "inputs": [
        {
          "name": "_offerNr",
          "type": "uint256"
        },
        {
          "name": "_acceptedPrice",
          "type": "uint256"
        }
      ],
      "name": "setAcceptedPrice",
      "outputs": [],
      "payable": false,
      "type": "function"
    },
    {
      "constant": true,
      "inputs": [],
      "name": "numOffers",
      "outputs": [
        {
          "name": "",
          "type": "uint256"
        }
      ],
      "payable": false,
      "type": "function"
    },
    {
      "constant": true,
      "inputs": [],
      "name": "numBids",
      "outputs": [
        {
          "name": "",
          "type": "uint256"
        }
      ],
      "payable": false,
      "type": "function"
    },
    {
      "anonymous": false,
      "inputs": [],
      "name": "NewOffer",
      "type": "event"
    },
    {
      "anonymous": false,
      "inputs": [],
      "name": "UpdateBid",
      "type": "event"
    },
    {
      "anonymous": false,
      "inputs": [],
      "name": "CorrectionOffer",
      "type": "event"
    }
  ],
  "bytecode": "0x6060604052341561000c57fe5b5b6110d18061001c6000396000f300606060405236156100b8576000357c0100000000000000000000000000000000000000000000000000000000900463ffffffff16806302e18eb5146100ba57806322dd631b1461010d57806323c9cf82146101645780633c889e6f146101965780634423c5f1146102045780634579268a146102805780637d7acfc0146103005780638a72ea6a146103295780639ad84353146103b0578063a8ced0bb146103fa578063cc6bee5414610423578063ce9ec0a614610449575bfe5b34156100c257fe5b6100f3600480803590602001909190803590602001909190803590602001909190803590602001909190505061046f565b604051808215151515815260200191505060405180910390f35b341561011557fe5b61014a600480803590602001909190803573ffffffffffffffffffffffffffffffffffffffff16906020019091905050610586565b604051808215151515815260200191505060405180910390f35b341561016c57fe5b6101946004808035906020019091908035906020019091908035906020019091905050610ac5565b005b341561019e57fe5b6101b46004808035906020019091905050610b9d565b604051808473ffffffffffffffffffffffffffffffffffffffff1673ffffffffffffffffffffffffffffffffffffffff168152602001838152602001828152602001935050505060405180910390f35b341561020c57fe5b6102226004808035906020019091905050610c16565b604051808673ffffffffffffffffffffffffffffffffffffffff1673ffffffffffffffffffffffffffffffffffffffff1681526020018581526020018481526020018381526020018281526020019550505050505060405180910390f35b341561028857fe5b61029e6004808035906020019091905050610c6c565b604051808673ffffffffffffffffffffffffffffffffffffffff1673ffffffffffffffffffffffffffffffffffffffff168152602001858152602001848152602001838152602001821515151581526020019550505050505060405180910390f35b341561030857fe5b6103276004808035906020019091908035906020019091905050610d3d565b005b341561033157fe5b6103476004808035906020019091905050610ec9565b604051808773ffffffffffffffffffffffffffffffffffffffff1673ffffffffffffffffffffffffffffffffffffffff16815260200186815260200185815260200184815260200183815260200182151515158152602001965050505050505060405180910390f35b34156103b857fe5b6103e06004808035906020019091908035906020019091908035906020019091905050610f32565b604051808215151515815260200191505060405180910390f35b341561040257fe5b6104216004808035906020019091908035906020019091905050611008565b005b341561042b57fe5b610433611099565b6040518082815260200191505060405180910390f35b341561045157fe5b61045961109f565b6040518082815260200191505060405180910390f35b6000600115156000600087815260200190815260200160002060080160009054906101000a900460ff16151514156104aa576000905061057e565b3373ffffffffffffffffffffffffffffffffffffffff166001600086815260200190815260200160002060000160009054906101000a900473ffffffffffffffffffffffffffffffffffffffff1673ffffffffffffffffffffffffffffffffffffffff161480156105305750846001600086815260200190815260200160002060010154145b15610574578260016000868152602001908152602001600020600301819055508160016000868152602001908152602001600020600401819055506001905061057e565b6000905061057e565b5b949350505050565b6000600060003373ffffffffffffffffffffffffffffffffffffffff166000600087815260200190815260200160002060000160009054906101000a900473ffffffffffffffffffffffffffffffffffffffff1673ffffffffffffffffffffffffffffffffffffffff161415156105fd5760006000fd5b60009150839050600060006000878152602001908152602001600020600101541215610844575b600060008681526020019081526020016000206006015482101561084357600060008681526020019081526020016000206007015460006000878152602001908152602001600020600501600084815260200190815260200160002060040154111515610835578073ffffffffffffffffffffffffffffffffffffffff1663052c36c06000600088815260200190815260200160002060000160009054906101000a900473ffffffffffffffffffffffffffffffffffffffff1660006000898152602001908152602001600020600501600086815260200190815260200160002060000160009054906101000a900473ffffffffffffffffffffffffffffffffffffffff16600060008a815260200190815260200160002060070154600060008b8152602001908152602001600020600501600088815260200190815260200160002060030154600003026040518463ffffffff167c0100000000000000000000000000000000000000000000000000000000028152600401808473ffffffffffffffffffffffffffffffffffffffff1673ffffffffffffffffffffffffffffffffffffffff1681526020018373ffffffffffffffffffffffffffffffffffffffff1673ffffffffffffffffffffffffffffffffffffffff1681526020018281526020019350505050600060405180830381600087803b151561082357fe5b6102c65a03f1151561083157fe5b5050505b5b8180600101925050610624565b5b600060006000878152602001908152602001600020600101541315610a81575b6000600086815260200190815260200160002060060154821015610a8057600060008681526020019081526020016000206007015460006000878152602001908152602001600020600501600084815260200190815260200160002060040154101515610a72578073ffffffffffffffffffffffffffffffffffffffff1663052c36c060006000888152602001908152602001600020600501600085815260200190815260200160002060000160009054906101000a900473ffffffffffffffffffffffffffffffffffffffff166000600089815260200190815260200160002060000160009054906101000a900473ffffffffffffffffffffffffffffffffffffffff16600060008a815260200190815260200160002060070154600060008b8152602001908152602001600020600501600088815260200190815260200160002060030154026040518463ffffffff167c0100000000000000000000000000000000000000000000000000000000028152600401808473ffffffffffffffffffffffffffffffffffffffff1673ffffffffffffffffffffffffffffffffffffffff1681526020018373ffffffffffffffffffffffffffffffffffffffff1673ffffffffffffffffffffffffffffffffffffffff1681526020018281526020019350505050600060405180830381600087803b1515610a6057fe5b6102c65a03f11515610a6e57fe5b5050505b5b8180600101925050610864565b5b600115610ab85760016000600087815260200190815260200160002060080160006101000a81548160ff0219169083151502179055505b600192505b505092915050565b600060016002540160028190555060006000600254815260200190815260200160002090506002548160040181905550338160000160006101000a81548173ffffffffffffffffffffffffffffffffffffffff021916908373ffffffffffffffffffffffffffffffffffffffff16021790555083816001018190555082816002016000600281101515610b5457fe5b0160005b508190555081816002016001600281101515610b7057fe5b0160005b508190555060008160080160006101000a81548160ff0219169083151502179055505b50505050565b6000600060006001600085815260200190815260200160002060000160009054906101000a900473ffffffffffffffffffffffffffffffffffffffff16600160008681526020019081526020016000206003015460016000878152602001908152602001600020600401549250925092505b9193909250565b60016020528060005260406000206000915090508060000160009054906101000a900473ffffffffffffffffffffffffffffffffffffffff16908060010154908060020154908060030154908060040154905085565b600060006000600060006000600087815260200190815260200160002060000160009054906101000a900473ffffffffffffffffffffffffffffffffffffffff166000600088815260200190815260200160002060010154600060008981526020019081526020016000206002016000600281101515610ce857fe5b0160005b5054600060008a815260200190815260200160002060070154600060008b815260200190815260200160002060080160009054906101000a900460ff16945094509450945094505b91939590929450565b3373ffffffffffffffffffffffffffffffffffffffff166000600084815260200190815260200160002060000160009054906101000a900473ffffffffffffffffffffffffffffffffffffffff1673ffffffffffffffffffffffffffffffffffffffff16141515610dae5760006000fd5b60016000828152602001908152602001600020600060008481526020019081526020016000206005016000600060008681526020019081526020016000206006015481526020019081526020016000206000820160009054906101000a900473ffffffffffffffffffffffffffffffffffffffff168160000160006101000a81548173ffffffffffffffffffffffffffffffffffffffff021916908373ffffffffffffffffffffffffffffffffffffffff16021790555060018201548160010155600282015481600201556003820154816003015560048201548160040155905050600160006000848152602001908152602001600020600601540160006000848152602001908152602001600020600601819055505b5050565b60006020528060005260406000206000915090508060000160009054906101000a900473ffffffffffffffffffffffffffffffffffffffff16908060010154908060040154908060060154908060070154908060080160009054906101000a900460ff16905086565b60006000600115156000600087815260200190815260200160002060080160009054906101000a900460ff1615151415610f6f5760009150611000565b6001600354016003819055506001600060035481526020019081526020016000209050338160000160006101000a81548173ffffffffffffffffffffffffffffffffffffffff021916908373ffffffffffffffffffffffffffffffffffffffff1602179055508481600101819055506003548160020181905550838160030181905550828160040181905550600191505b509392505050565b3373ffffffffffffffffffffffffffffffffffffffff166000600084815260200190815260200160002060000160009054906101000a900473ffffffffffffffffffffffffffffffffffffffff1673ffffffffffffffffffffffffffffffffffffffff161415156110795760006000fd5b8060006000848152602001908152602001600020600701819055505b5050565b60025481565b600354815600a165627a7a72305820665e1928b63cb78e4c5abed20622d23c21d33d466b00bd50ee6cad873c47a0570029",
  "source": "pragma solidity ^0.4.11;\r\nimport \"./FlexCoin.sol\";\r\n\r\ncontract FutureBlock{\r\n\r\n    // Description:\r\n    // The product of this trading is a spesific energy amount at a spesified time interval\r\n\r\n    // Set up a struct for the offer. The offer is from a node who needs flexibility, which most likely is the grid operator\r\n    struct Offer {\r\n        address owner;   // Who needs the flexibility?\r\n        int offerAmount;   // This amount could be negative and positive. Negative implies that the oferter is using too much, and must remove his consumption\r\n        uint[2] interval;   // Over how long time is the energy needed?\r\n        uint offerNr;\r\n\r\n        mapping(uint => Bid) acceptedBids; // This is a vector over the accepted bids\r\n        uint numAcceptedBids;\r\n        uint acceptedPrice; // This is the final market price\r\n        bool fulfilled; // If the offer is fulfilled, it is not possible to deliver more bids to the offer\r\n    }\r\n\r\n    // A bid struct is made, which describes all bids\r\n    struct Bid {\r\n        address bidder;\r\n        uint offerNr;  // What offer the struct is pointing at\r\n        uint bidNr;\r\n        int bidAmount;\r\n        uint bidPrice;\r\n    }\r\n\r\n    mapping(uint => Offer) public offers;\r\n    mapping(uint => Bid) public bids;\r\n    uint public numOffers;\r\n    uint public numBids;\r\n\r\n\r\n    // Events are needed to alert the nodes in the system when the things below happen. This is useful when the grid operator needs flexibility automatically and fast.\r\n    event NewOffer();\r\n    event UpdateBid();\r\n    event CorrectionOffer();\r\n\r\n    // FUNCTIONS \r\n\r\n    function newOffer(int _amount, uint _startInterval, uint _endInterval) public {\r\n        NewOffer;\r\n        numOffers = numOffers + 1;\r\n        Offer o = offers[numOffers];\r\n        o.offerNr = numOffers;\r\n        o.owner = msg.sender;\r\n        o.offerAmount = _amount;\r\n        o.interval[0] = _startInterval;\r\n        o.interval[1] = _endInterval;\r\n        o.fulfilled = false;\r\n    }\r\n\r\n    function getOffer(uint _offerNr) public constant returns(address, int, uint, uint, bool) {\r\n        return(offers[_offerNr].owner, offers[_offerNr].offerAmount, offers[_offerNr].interval[0], offers[_offerNr].acceptedPrice, offers[_offerNr].fulfilled);\r\n    }\r\n\r\n    function setBid(uint _offerNr, int _bidAmount, uint _bidPrice) public returns(bool success)  {\r\n        if (offers[_offerNr].fulfilled == true) {  return false;  }\r\n        // Could have a for-loop here to ensure that the msg.sender dont have a bid in the offer. This is however not necessary, and up to market designer.\r\n        numBids = numBids + 1;\r\n        Bid b = bids[numBids];\r\n        b.bidder = msg.sender;\r\n        b.offerNr = _offerNr;\r\n        b.bidNr = numBids;\r\n        b.bidAmount = _bidAmount;\r\n        b.bidPrice = _bidPrice;\r\n        return true;\r\n    }\r\n\r\n    function updateBid(uint _offerNr, uint _bidNr, int _bidAmount, uint _bidPrice) public returns(bool success)  {\r\n        // as the realizing time approaches, the batteries can update their price to more expensive prices.\r\n        UpdateBid;\r\n        if (offers[_offerNr].fulfilled == true) {  return false;  }\r\n        if(bids[_bidNr].bidder == msg.sender && bids[_bidNr].offerNr == _offerNr){\r\n            // This applies when the sender already have a bid on the applied offer\r\n            bids[_bidNr].bidAmount = _bidAmount;\r\n            bids[_bidNr].bidPrice = _bidPrice;\r\n            return true;\r\n        }\r\n        else{\r\n            return false;\r\n        }\r\n    }\r\n\r\n    function getBid(uint _bidNr) public constant returns(address, int, uint){\r\n        // Here we could choose wether the auction should be blind or open. Now it is open.\r\n        return(bids[_bidNr].bidder, bids[_bidNr].bidAmount, bids[_bidNr].bidPrice);\r\n    }\r\n\r\n\r\n    // The two functions below is used by the grip operator, when deciding what bids should be accepted, and to what price\r\n    function setAcceptedBids(uint _offerNr, uint _bidNr) public {\r\n        require(offers[_offerNr].owner == msg.sender);\r\n        offers[_offerNr].acceptedBids[offers[_offerNr].numAcceptedBids] = bids[_bidNr];\r\n        offers[_offerNr].numAcceptedBids = offers[_offerNr].numAcceptedBids + 1;\r\n    }\r\n\r\n    function setAcceptedPrice(uint _offerNr, uint _acceptedPrice) {\r\n        require(offers[_offerNr].owner == msg.sender);\r\n        offers[_offerNr].acceptedPrice = _acceptedPrice;\r\n    }\r\n\r\n    function transferAndClose(uint _offerNr, address contractAddress) public returns (bool success){\r\n        // This can only be called by the owner of the offer.\r\n        require(offers[_offerNr].owner == msg.sender);\r\n        uint i = 0;\r\n        FlexCoin f = FlexCoin(contractAddress);\r\n        // We must set the accepted bids! Everything under a certain price\r\n        if (offers[_offerNr].offerAmount < 0) {\r\n            // This means that the oferter must remove consumption => he buys energy from the bidders\r\n            // Must check that the price is equal or over the bid prices.\r\n            for (i; i < offers[_offerNr].numAcceptedBids; i++) {\r\n                if (offers[_offerNr].acceptedBids[i].bidPrice <= offers[_offerNr].acceptedPrice) {\r\n                    f.transferHouse(offers[_offerNr].owner, offers[_offerNr].acceptedBids[i].bidder, uint(-offers[_offerNr].acceptedBids[i].bidAmount) * offers[_offerNr].acceptedPrice);\r\n                }\r\n            }\r\n        }\r\n        if (offers[_offerNr].offerAmount > 0) {\r\n            for (i; i < offers[_offerNr].numAcceptedBids; i++) {\r\n                if (offers[_offerNr].acceptedBids[i].bidPrice >= offers[_offerNr].acceptedPrice) {\r\n                    f.transferHouse(offers[_offerNr].acceptedBids[i].bidder, offers[_offerNr].owner, uint(offers[_offerNr].acceptedBids[i].bidAmount) * offers[_offerNr].acceptedPrice);\r\n                }\r\n            }\r\n        }\r\n        if (true){\r\n            offers[_offerNr].fulfilled = true;\r\n        }\r\n        return(true);\r\n    }\r\n}\r\n",
  "sourcePath": "C:\\Users\\inaya\\Documents\\SEMESTER 6\\SEMESTER 6\\6_DistSys\\besu\\truffle-proj\\contracts\\FutureBlock.sol",
  "compiler": {
    "name": "solc",
    "version": "0.4.11+commit.68ef5810.Emscripten.clang"
  },
  "schemaVersion": "3.4.16",
  "updatedAt": "2024-05-13T22:46:15.230Z",
  "devdoc": {
    "methods": {}
  },
  "userdoc": {
    "methods": {}
  }
}