{
  "contractName": "RealTime",
  "abi": [
    {
      "constant": true,
      "inputs": [
        {
          "name": "flexFlag",
          "type": "uint256"
        },
        {
          "name": "batteryList1",
          "type": "uint256[]"
        },
        {
          "name": "batteryList2",
          "type": "uint256[]"
        },
        {
          "name": "marketPrice",
          "type": "uint256"
        },
        {
          "name": "transactedAmount",
          "type": "uint256"
        }
      ],
      "name": "checkSortAndMatching",
      "outputs": [
        {
          "name": "success",
          "type": "uint256"
        }
      ],
      "payable": false,
      "type": "function"
    },
    {
      "constant": false,
      "inputs": [
        {
          "name": "_houseID",
          "type": "uint256"
        },
        {
          "name": "_upAvailableFlex",
          "type": "uint256"
        },
        {
          "name": "_downAvailableFlex",
          "type": "uint256"
        },
        {
          "name": "_deviation",
          "type": "int256"
        }
      ],
      "name": "setRealTimeNodeBattery",
      "outputs": [],
      "payable": false,
      "type": "function"
    },
    {
      "constant": false,
      "inputs": [
        {
          "name": "flexFlag",
          "type": "uint256"
        },
        {
          "name": "batteryList1",
          "type": "uint256[]"
        },
        {
          "name": "batteryList2",
          "type": "uint256[]"
        },
        {
          "name": "transactions1",
          "type": "uint256[]"
        },
        {
          "name": "transactions2",
          "type": "uint256[]"
        },
        {
          "name": "transactions3",
          "type": "uint256[]"
        },
        {
          "name": "marketPrice",
          "type": "uint256"
        },
        {
          "name": "contractAddress",
          "type": "address"
        }
      ],
      "name": "checkAndTransactList",
      "outputs": [
        {
          "name": "success",
          "type": "bool"
        }
      ],
      "payable": false,
      "type": "function"
    },
    {
      "constant": false,
      "inputs": [
        {
          "name": "_owner",
          "type": "address"
        }
      ],
      "name": "newRealTimeNode",
      "outputs": [],
      "payable": true,
      "type": "function"
    },
    {
      "constant": true,
      "inputs": [],
      "name": "wholesalePrice",
      "outputs": [
        {
          "name": "",
          "type": "uint256"
        }
      ],
      "payable": false,
      "type": "function"
    },
    {
      "constant": false,
      "inputs": [
        {
          "name": "_houseID",
          "type": "uint256"
        },
        {
          "name": "_upPrice",
          "type": "uint256"
        },
        {
          "name": "_downPrice",
          "type": "uint256"
        }
      ],
      "name": "setRealTimeNodePrice",
      "outputs": [],
      "payable": false,
      "type": "function"
    },
    {
      "constant": true,
      "inputs": [],
      "name": "numHouses",
      "outputs": [
        {
          "name": "",
          "type": "uint256"
        }
      ],
      "payable": false,
      "type": "function"
    },
    {
      "constant": true,
      "inputs": [
        {
          "name": "_houseID",
          "type": "uint256"
        }
      ],
      "name": "getRealTimeNode",
      "outputs": [
        {
          "name": "",
          "type": "address"
        },
        {
          "name": "",
          "type": "uint256"
        },
        {
          "name": "",
          "type": "uint256"
        },
        {
          "name": "",
          "type": "uint256"
        },
        {
          "name": "",
          "type": "uint256"
        },
        {
          "name": "",
          "type": "int256"
        }
      ],
      "payable": false,
      "type": "function"
    }
  ],
  "bytecode": "0x60606040526101d6600055341561001257fe5b5b610c54806100226000396000f3006060604052361561008c576000357c0100000000000000000000000000000000000000000000000000000000900463ffffffff16806349743f401461008e57806357ec0bdb146101545780635da3987e1461018f5780636b1c83a91461032f57806377f804021461035d57806382102fa1146103835780638d8447f6146103b5578063b6bbe211146103db575bfe5b341561009657fe5b61013e6004808035906020019091908035906020019082018035906020019080806020026020016040519081016040528093929190818152602001838360200280828437820191505050505050919080359060200190820180359060200190808060200260200160405190810160405280939291908181526020018383602002808284378201915050505050509190803590602001909190803590602001909190505061045e565b6040518082815260200191505060405180910390f35b341561015c57fe5b61018d600480803590602001909190803590602001909190803590602001909190803590602001909190505061080e565b005b341561019757fe5b6103156004808035906020019091908035906020019082018035906020019080806020026020016040519081016040528093929190818152602001838360200280828437820191505050505050919080359060200190820180359060200190808060200260200160405190810160405280939291908181526020018383602002808284378201915050505050509190803590602001908201803590602001908080602002602001604051908101604052809392919081815260200183836020028082843782019150505050505091908035906020019082018035906020019080806020026020016040519081016040528093929190818152602001838360200280828437820191505050505050919080359060200190820180359060200190808060200260200160405190810160405280939291908181526020018383602002808284378201915050505050509190803590602001909190803573ffffffffffffffffffffffffffffffffffffffff16906020019091905050610848565b604051808215151515815260200191505060405180910390f35b61035b600480803573ffffffffffffffffffffffffffffffffffffffff16906020019091905050610a79565b005b341561036557fe5b61036d610b20565b6040518082815260200191505060405180910390f35b341561038b57fe5b6103b36004808035906020019091908035906020019091908035906020019091905050610b26565b005b34156103bd57fe5b6103c5610b56565b6040518082815260200191505060405180910390f35b34156103e357fe5b6103f96004808035906020019091905050610b5c565b604051808773ffffffffffffffffffffffffffffffffffffffff1673ffffffffffffffffffffffffffffffffffffffff168152602001868152602001858152602001848152602001838152602001828152602001965050505050505060405180910390f35b6000600060006000600060006000945060008b141561052857600094505b60018a510385101561052757886001860181518110151561049957fe5b9060200190602002015189868151811015156104b157fe5b90602001906020020151118061050b5750600260008b878151811015156104d457fe5b9060200190602002015181526020019081526020016000206001015489868151811015156104fe57fe5b9060200190602002015114155b156105195760009550610800565b5b848060010195505061047c565b5b60018b14156105e257600094505b60018a51038510156105e157886001860181518110151561055357fe5b90602001906020020151898681518110151561056b57fe5b9060200190602002015110806105c55750600260008b8781518110151561058e57fe5b9060200190602002015181526020019081526020016000206002015489868151811015156105b857fe5b9060200190602002015114155b156105d35760009550610800565b5b8480600101955050610536565b5b60008b10806105f1575060018b115b156105ff5760009550610800565b60009350600092506000915060009050600094505b6001548510156106a55760006002600087815260200190815260200160002060050154121561065c578360026000878152602001908152602001600020600501546000030193505b600060026000878152602001908152602001600020600501541315610697578260026000878152602001908152602001600020600501540192505b5b8480600101955050610614565b82841080156106c0575060008b1415806106bf5750828714155b5b156106ce5760009550610800565b82841180156106e9575060018b1415806106e85750838714155b5b156106f75760009550610800565b60009450828410156107815783870391505b818110156107505780600260008c8881518110151561072457fe5b906020019060200201518152602001908152602001600020600301540190508480600101955050610709565b886001860381518110151561076157fe5b906020019060200201518814151561077c5760009550610800565b6107fb565b82870391505b818110156107ce5780600260008c888151811015156107a257fe5b906020019060200201518152602001908152602001600020600401540190508480600101955050610787565b88600186038151811015156107df57fe5b90602001906020020151881415156107fa5760009550610800565b5b600195505b505050505095945050505050565b60006002600086815260200190815260200160002090508381600301819055508281600401819055508181600501819055505b5050505050565b600060006000600060009250600091508490505b885182101561088f57868281518110151561087357fe5b90602001906020020151830192505b818060010192505061085c565b600161089e8d8d8d8a8861045e565b1415610a6057600091505b8851821015610a57578073ffffffffffffffffffffffffffffffffffffffff1663052c36c0600260008c868151811015156108e057fe5b90602001906020020151815260200190815260200160002060000160009054906101000a900473ffffffffffffffffffffffffffffffffffffffff16600260008c8781518110151561092e57fe5b90602001906020020151815260200190815260200160002060000160009054906101000a900473ffffffffffffffffffffffffffffffffffffffff16898b8781518110151561097957fe5b90602001906020020151026040518463ffffffff167c0100000000000000000000000000000000000000000000000000000000028152600401808473ffffffffffffffffffffffffffffffffffffffff1673ffffffffffffffffffffffffffffffffffffffff1681526020018373ffffffffffffffffffffffffffffffffffffffff1673ffffffffffffffffffffffffffffffffffffffff1681526020018281526020019350505050600060405180830381600087803b1515610a3857fe5b6102c65a03f11515610a4657fe5b5050505b81806001019250506108a9565b60019350610a6a565b60009350610a6a565b5b50505098975050505050505050565b6000600060016000815480929190600101919050559150600260008381526020019081526020016000209050828160000160006101000a81548173ffffffffffffffffffffffffffffffffffffffff021916908373ffffffffffffffffffffffffffffffffffffffff16021790555060008160050181905550600081600101819055506000816002018190555060008160030181905550600081600401819055505b505050565b60005481565b60006002600085815260200190815260200160002090508281600101819055508181600201819055505b50505050565b60015481565b6000600060006000600060006002600088815260200190815260200160002060000160009054906101000a900473ffffffffffffffffffffffffffffffffffffffff166002600089815260200190815260200160002060010154600260008a815260200190815260200160002060020154600260008b815260200190815260200160002060030154600260008c815260200190815260200160002060040154600260008d8152602001908152602001600020600501549550955095509550955095505b919395509193955600a165627a7a72305820e14189efc0299d482ed4f58a2b14505d76c07a5e0683301fff1cab29b677adcd0029",
  "source": "\r\npragma solidity ^0.4.11;\r\nimport \"./FlexCoin.sol\";\r\n\r\ncontract RealTime {\r\n\r\n// ----------------------------------------------------------------------------\r\n// INITIALIZATION\r\n// ----------------------------------------------------------------------------\r\n  struct RealTimeNode {\r\n      address owner;\r\n      uint upPrice;\r\n      uint downPrice;\r\n      uint upAvailableFlex;\r\n      uint downAvailableFlex;\r\n      int deviation;\r\n  }\r\n\r\n  uint public wholesalePrice = 470;\r\n  uint public numHouses;\r\n\r\n  mapping(uint => RealTimeNode) houses;\r\n\r\n// ----------------------------------------------------------------------------\r\n// FUNCTIONS\r\n// ----------------------------------------------------------------------------\r\n\r\n  function newRealTimeNode(address _owner) payable public {\r\n      uint houseID = numHouses++;\r\n      RealTimeNode h = houses[houseID];\r\n      h.owner = _owner;\r\n      h.deviation = 0;\r\n      h.upPrice = 0;\r\n      h.downPrice = 0;\r\n      h.upAvailableFlex = 0;\r\n      h.downAvailableFlex = 0;\r\n  }\r\n  // costs 132 707 gas\r\n\r\n  function setRealTimeNodePrice(uint _houseID, uint _upPrice, uint _downPrice) public {\r\n\r\n    // The if sentence below could be activated if we only want to update your own house\r\n    // if (houses[_houseID].owner == msg.sender){\r\n          RealTimeNode h = houses[_houseID];\r\n          h.upPrice = _upPrice;\r\n          h.downPrice = _downPrice;\r\n    // }\r\n  }\r\n  // costs 32 193 gas\r\n\r\n  function setRealTimeNodeBattery(uint _houseID, uint _upAvailableFlex, uint _downAvailableFlex, int _deviation) public {\r\n      // This function could be connected through the smart meter in the battery, and hence not possible to change for the users. This could be implemented thorugh a if sentence, as shown below\r\n      // if(msg.sender == houses[_houseID].smartMeter)\r\n      RealTimeNode h = houses[_houseID];\r\n      h.upAvailableFlex = _upAvailableFlex;\r\n      h.downAvailableFlex = _downAvailableFlex;\r\n      h.deviation = _deviation;\r\n  }\r\n  // costs 82 717 gas\r\n\r\n  function getRealTimeNode(uint _houseID) public constant returns (address, uint, uint, uint, uint, int) {\r\n      return (houses[_houseID].owner, houses[_houseID].upPrice, houses[_houseID].downPrice, houses[_houseID].upAvailableFlex, houses[_houseID].downAvailableFlex, houses[_houseID].deviation);\r\n  }\r\n  // costs 23 610 gas\r\n\r\n  function checkSortAndMatching(uint flexFlag, uint[] batteryList1, uint[] batteryList2, uint marketPrice, uint transactedAmount) constant public returns(uint success){\r\n    // This function will check the flexFlag, the transactions and the sorting algorithm. It will not store anything in the blockchain.\r\n\r\n    //\r\n    // 1. First, check if the sorting algorithm is correct\r\n    //\r\n      uint i = 0;\r\n      if (flexFlag == 0){\r\n          for (i = 0; i < (batteryList1.length - 1); i++){\r\n              if((batteryList2[i] > batteryList2[i + 1]) || (batteryList2[i] != houses[batteryList1[i]].upPrice)) {\r\n                  return 0;\r\n              }\r\n          }\r\n      }\r\n      if (flexFlag == 1){\r\n          for (i = 0; i < (batteryList1.length - 1); i++){\r\n              if((batteryList2[i] < batteryList2[i + 1]) || (batteryList2[i] != houses[batteryList1[i]].downPrice)) {\r\n                  return 0;\r\n              }\r\n          }\r\n      }\r\n      if (flexFlag < 0 || flexFlag > 1){\r\n          return 0;\r\n      }\r\n\r\n    //\r\n    //2. Checking if flexFlag and transactions are correct \r\n    //\r\n\r\n      // The sum of the biggest deviation must correspond to the transacted amount\r\n      uint demand = 0;\r\n      uint supply = 0;\r\n      uint reqBattery = 0;\r\n      uint sum_battery = 0;\r\n      for(i = 0; i < numHouses; i++){\r\n          if (houses[i].deviation < 0){\r\n              demand = uint(-houses[i].deviation) + demand;\r\n          }\r\n          if (houses[i].deviation > 0){\r\n              supply = uint(houses[i].deviation) + supply;\r\n          }\r\n      }\r\n\r\n      if(demand < supply && (flexFlag != 0 || transactedAmount != supply)) { return 0; }\r\n      if(demand > supply && (flexFlag != 1 || transactedAmount != demand)) { return 0; }\r\n\r\n    //\r\n    // 3. At last, we must check if the marketPrice is correct\r\n    //\r\n      i = 0;\r\n      if (demand < supply){\r\n          // Here, demand + battery is the amount, and we must calculate with\r\n          reqBattery = transactedAmount - demand;\r\n          while (sum_battery < reqBattery){\r\n              sum_battery = houses[batteryList1[i]].upAvailableFlex + sum_battery;\r\n              i++;\r\n          }\r\n          if (marketPrice != batteryList2[i - 1]) { return 0; }\r\n      }\r\n      else {\r\n          reqBattery = transactedAmount - supply;\r\n          while (sum_battery < reqBattery){\r\n              sum_battery = houses[batteryList1[i]].downAvailableFlex + sum_battery;\r\n              i++;\r\n          }\r\n          if (marketPrice != batteryList2[i - 1]) { return 0; }\r\n      }\r\n      return 1;\r\n  }\r\n  // costs 43 841 gas\r\n\r\n  function checkAndTransactList(uint flexFlag, uint[] batteryList1, uint[] batteryList2, uint[] transactions1, uint[] transactions2, uint[] transactions3, uint marketPrice, address contractAddress) public returns(bool success){\r\n      uint transactedAmount = 0;\r\n      uint i = 0;\r\n      FlexCoin f = FlexCoin(contractAddress);\r\n      for (i; i < transactions1.length; i++) {\r\n          transactedAmount = transactedAmount + transactions3[i];\r\n      }\r\n\r\n      if (checkSortAndMatching(flexFlag, batteryList1, batteryList2, marketPrice, transactedAmount) == 1) {\r\n          for (i = 0; i < transactions1.length; i++){\r\n              f.transferHouse(houses[transactions1[i]].owner, houses[transactions2[i]].owner, transactions3[i] * marketPrice);\r\n          }\r\n          return true;\r\n      }\r\n      else {\r\n          return false;\r\n      }\r\n  }\r\n    // costs 43 849 gas\r\n}\r\n",
  "sourcePath": "C:\\Users\\inaya\\Documents\\SEMESTER 6\\SEMESTER 6\\6_DistSys\\besu\\truffle-proj\\contracts\\RealTime.sol",
  "compiler": {
    "name": "solc",
    "version": "0.4.11+commit.68ef5810.Emscripten.clang"
  },
  "schemaVersion": "3.4.16",
  "updatedAt": "2024-05-22T02:26:05.329Z",
  "networkType": "ethereum",
  "devdoc": {
    "methods": {}
  },
  "userdoc": {
    "methods": {}
  }
}